{
  "contractName": "Owned",
  "abi": [
    {
      "constant": true,
      "inputs": [],
      "name": "owner",
      "outputs": [
        {
          "name": "",
          "type": "address"
        }
      ],
      "payable": false,
      "stateMutability": "view",
      "type": "function"
    },
    {
      "inputs": [],
      "payable": false,
      "stateMutability": "nonpayable",
      "type": "constructor"
    },
    {
      "anonymous": false,
      "inputs": [
        {
          "indexed": true,
          "name": "_from",
          "type": "address"
        },
        {
          "indexed": true,
          "name": "_to",
          "type": "address"
        }
      ],
      "name": "OwnershipTransferred",
      "type": "event"
    }
  ],
  "bytecode": "0x608060405234801561001057600080fd5b50336000806101000a81548173ffffffffffffffffffffffffffffffffffffffff021916908373ffffffffffffffffffffffffffffffffffffffff16021790555060c68061005f6000396000f3fe6080604052348015600f57600080fd5b506004361060285760003560e01c80638da5cb5b14602d575b600080fd5b60336075565b604051808273ffffffffffffffffffffffffffffffffffffffff1673ffffffffffffffffffffffffffffffffffffffff16815260200191505060405180910390f35b6000809054906101000a900473ffffffffffffffffffffffffffffffffffffffff168156fea165627a7a72305820045052910dea231b31ce1cd75615bec68a9fcca27d08a4fe02a006e1b107eff80029",
  "source": "/**\n*Submitted for verification at Etherscan.io on 2019-10-20\n*/\n\npragma solidity >= 0.5 .0 < 0.7 .0;\n\n/*\n+-----------------------------------+\n|HZHZHZHZHZHZHZHZ/ /HZHZHZHZHZHZHZHZ|\n|HZHZHZHZHZHZHZH`   `HZHZHZHZHZHZHZH|\n|HZHZHZHZHZHZH-       -HZHZHZHZHZHZH|\n|HZHZHZHZHZH/           /HZHZHZHZHZH|\n|HZHZHZHZHZHZHZHZH+:     `HZHZHZHZHZ|\n|HZHZHZHZHZHZHZHZHZHZ-     -HZHZHZHZ|\n|HZHZHZHZHZHZHZHZHZHZHZ`     /HZHZHZ|\n|HZHZHZHZHZHZHZHZHZHZHZH/`    .HZHZH|\n|HZH-------/HZHZHZHZHZHZH+      -HZH|\n|H/`         /HZHZHZ-            `/H|\n||            `HZHZHZH`            ||\n|H/`            -HZHZHZ:         `/H|\n|HZH-      +HZHZHZHZHZHZH/-------HZH|\n|HZHZH.     /HZHZHZHZHZHZHZHZHZHZHZH|\n|HZHZHZ/     `HZHZHZHZHZHZHZHZHZHZHZ|\n|HZHZHZHZ-     -HZHZHZHZHZHZHZHZHZHZ|\n|HZHZHZHZHZ`     :+HZHZHZHZHZHZHZHZH|\n|HZHZHZHZHZH/           /HZHZHZHZHZH|\n|HZHZHZHZHZHZH-       -HZHZHZHZHZHZH|\n|HZHZHZHZHZHZHZH`   `HZHZHZHZHZHZHZH|\n|HZHZHZHZHZHZHZHZ/ /HZHZHZHZHZHZHZHZ|\n+-----------------------------------+\n\n_    ____________________________\n| |  |   ____   __  __   ______  /\n| |__|  |__  | |__) | | |     / /\n|  __    __| |  _  /  | |    / /\n| |  |  |____| | \\ \\  | |   / /__\n|_|  |_________|  \\_\\ |_|  /_____| V1.0\n\nA deflationary stable-coin, with a constantly increasing price.\n\nSymbol        :  HZ\nName          :  Hertz Token\nTotal supply  :  21,000.0 (or 21 thousand tokens)\nDecimals      :  18\nTransfer Fees :  2% deducted from each transfer (a burning fee).\nExchange Fees :  no fees deducted while purchasing,\n2% fee while converting back to Ethereum\n\n*/\n\n// ----------------------------------------------------------------------------\n// Safe maths\n// ----------------------------------------------------------------------------\n\nlibrary SafeMath {\n\nfunction add(uint a, uint b) internal pure returns(uint c) {\nc = a + b;\nrequire(c >= a);\n}\n\nfunction sub(uint a, uint b) internal pure returns(uint c) {\nrequire(b <= a);\nc = a - b;\n}\n\nfunction mul(uint a, uint b) internal pure returns(uint c) {\nc = a * b;\nrequire(a == 0 || c / a == b);\n}\n\nfunction div(uint a, uint b) internal pure returns(uint c) {\nrequire(b > 0);\nc = a / b;\n}\n\nfunction sqrt(uint x) internal pure returns (uint y) {\nuint z = (x + 1) / 2;\ny = x;\nwhile (z < y) {\ny = z;\nz = (x / z + z) / 2;\n}\n}\n\n}\n\n// ----------------------------------------------------------------------------\n// ERC Token Standard\n// ----------------------------------------------------------------------------\n\ncontract ERC20Interface {\n\nfunction totalSupply() public view returns(uint);\nfunction balanceOf(address tokenOwner) public view returns(uint balance);\nfunction allowance(address tokenOwner, address spender) public view returns(uint remaining);\nfunction transfer(address to, uint tokens) public returns(bool success);\nfunction approve(address spender, uint tokens) public returns(bool success);\nfunction approveAndCall(address spender, uint tokens, bytes memory data) public returns(bool);\nfunction transferFrom(address from, address to, uint tokens) public returns(bool success);\n// function burnTokens(uint tokens) public returns(bool success); // for testing purposes only !\nfunction purchaseTokens() external payable;\nfunction purchaseEth(uint tokens) public;\nfunction sellAllTokens() public;\nfunction weiToTokens(uint weiPurchase) public view returns(uint);\nfunction tokensToWei(uint tokens) public view returns(uint);\n\nevent Transfer(address indexed from, address indexed to, uint tokens);\nevent Approval(address indexed tokenOwner, address indexed spender, uint tokens);\n\n}\n\n// ----------------------------------------------------------------------------\n// Contract function to receive approval and execute function in one call\n// ----------------------------------------------------------------------------\ncontract ApproveAndCallFallBack {\nfunction receiveApproval(address from, uint256 tokens, address token, bytes memory data) public;\n}\n\n// ----------------------------------------------------------------------------\n// Owned contract, it is necessary to make 100% sure that there is no contract owner.\n// We are making address(0) the owner, which means, nobody.\n// ----------------------------------------------------------------------------\ncontract Owned {\naddress public owner;\n\nevent OwnershipTransferred(address indexed _from, address indexed _to);\n\nconstructor() public {\nowner = msg.sender;\n}\n\nmodifier onlyOwner {\nrequire(msg.sender == owner);\n_;\n}\n}\n\n// ----------------------------------------------------------------------------\n// ERC20 Token\n// ----------------------------------------------------------------------------\ncontract _HERTZ is ERC20Interface, Owned {\n\nusing SafeMath\nfor uint;\n\nstring public symbol;\nstring public name;\nuint8 public decimals;\nuint private _DECIMALSCONSTANT;\nuint public _totalSupply;\nuint public _currentSupply;\nbool constructorLocked = false;\nmapping(address => uint) balances;\nmapping(address => mapping(address => uint)) allowed;\nuint public weiDeposited;\n\n// ------------------------------------------------------------------------------\n// The constructor function is called only once, and parameters are set.\n// We are making sure that the token owner becomes address(0), that is, no owner.\n// ------------------------------------------------------------------------------\nconstructor() public onlyOwner{\nif (constructorLocked) revert();\nconstructorLocked = true; // a bullet-proof mechanism\n\nsymbol = \"HZ\";\nname = \"Hertz\";\ndecimals = 18;\n_DECIMALSCONSTANT = 10 ** uint(decimals);\n_totalSupply = (uint(21000)).mul(_DECIMALSCONSTANT);\n_currentSupply = 0;\n\n//We will transfer the ownership only once, making sure there is no owner.\nemit OwnershipTransferred(msg.sender, address(0));\nowner = address(0);\n}\n\n// ------------------------------------------------------------------------------\n// Total supply\n// ------------------------------------------------------------------------------\nfunction totalSupply() public view returns(uint) {\nreturn _totalSupply;\n}\n\n\n// ------------------------------------------------------------------------------\n// Current supply\n// ------------------------------------------------------------------------------\nfunction currentSupply() public view returns(uint) {\nreturn _currentSupply;\n}\n\n\n// ------------------------------------------------------------------------------\n// Get the token balance for the account\n// ------------------------------------------------------------------------------\nfunction balanceOf(address tokenOwner) public view returns(uint balance) {\nreturn balances[tokenOwner];\n}\n\n// ------------------------------------------------------------------------\n// Transfer the tokens from owner's account to a `to` account\n// - Owner's account must have sufficient balance to transfer\n// - 0 value transfers are not allowed\n// - We cannot use this function to burn tokens\n// ------------------------------------------------------------------------\nfunction transfer(address to, uint tokens) public returns(bool success) {\nrequire(balances[msg.sender] >= tokens && tokens > 0, \"Zero transfer or not enough funds\");\nrequire(address(to) != address(0), \"No burning allowed\");\nrequire(address(msg.sender) != address(0), \"You can't mint this token, purchase it instead\");\n\nuint burn = tokens.div(50); //2% burn\nuint send = tokens.sub(burn);\n_transfer(to, send);\n_transfer(address(0), burn);\nreturn true;\n}\n\n\n// -------------------------------------------------------------------------\n// The internal transfer function. We don't keep a balance of a burn address\n// -------------------------------------------------------------------------\nfunction _transfer(address to, uint tokens) internal returns(bool success) {\nbalances[msg.sender] = balances[msg.sender].sub(tokens);\nif (address(to) != address(0)) {\nbalances[to] = balances[to].add(tokens);\n} else if (address(to) == address(0)) {\n_currentSupply = _currentSupply.sub(tokens);\n}\nemit Transfer(msg.sender, to, tokens);\nreturn true;\n}\n\n// ------------------------------------------------------------------------\n// Token owner can approve for `spender` to transferFrom(...) `tokens`\n// from the token owner's account\n// ------------------------------------------------------------------------\nfunction approve(address spender, uint tokens) public returns(bool success) {\nallowed[msg.sender][spender] = tokens;\nemit Approval(msg.sender, spender, tokens);\nreturn true;\n}\n\n// ------------------------------------------------------------------------\n// Transfer `tokens` from the `from` account to the `to` account\n//\n// The calling account must already have sufficient tokens approved\n// - From account must have sufficient balance to transfer\n// - Spender must have sufficient allowance to transfer\n// - 0 value transfers are not allowed\n// - This function cannot be used for burning tokens.\n// - This function cannot be used for minting tokens.\n// ------------------------------------------------------------------------\nfunction transferFrom(address from, address to, uint tokens) public returns(bool) {\nrequire(balances[from] >= tokens && allowed[from][msg.sender] >= tokens && tokens > 0, \"Zero transfer or not enough (allowed) funds\");\nrequire(address(to) != address(0), \"No burning allowed\");\nrequire(address(from) != address(0), \"You can't mint this token, purchase it instead\");\n\nuint burn = tokens.div(50); //2% burn\nuint send = tokens.sub(burn);\n_transferFrom(from, to, send);\n_transferFrom(from, address(0), burn);\n}\n\n// -----------------------------------------------------------------------------\n// The internal transferFrom function. We don't keep a balance of a burn address\n// -----------------------------------------------------------------------------\nfunction _transferFrom(address from, address to, uint tokens) internal returns(bool) {\nbalances[from] = balances[from].sub(tokens);\nallowed[from][msg.sender] = allowed[from][msg.sender].sub(tokens);\nif (address(to) != address(0)) {\nbalances[to] = balances[to].add(tokens);\n} else if (address(to) == address(0)) {\n_currentSupply = _currentSupply.sub(tokens);\n}\nemit Transfer(from, to, tokens);\nreturn true;\n}\n\n// ----------------------------------------------------------------------------------------------------\n// Returns the amount of tokens approved by the owner that can be transferred to the spender's account\n// ----------------------------------------------------------------------------------------------------\nfunction allowance(address tokenOwner, address spender) public view returns(uint remaining) {\nreturn allowed[tokenOwner][spender];\n}\n\n// ------------------------------------------------------------------------\n// Token owner can approve for `spender` to transferFrom(...) `tokens`\n// from the token owner's account. The `spender` contract function\n// `receiveApproval(...)` is then executed\n// ------------------------------------------------------------------------\nfunction approveAndCall(address spender, uint tokens, bytes memory data) public returns(bool) {\nallowed[msg.sender][spender] = tokens;\nemit Approval(msg.sender, spender, tokens);\nApproveAndCallFallBack(spender).receiveApproval(msg.sender, tokens, address(this), data);\nreturn true;\n}\n\n// ------------------------------------------------------------------------\n// This is a function which allows us to burn any amount of tokens.\n// This is commented out and to be used for the testing purposes only.\n// Otherwise, the contract could be abused in multiple ways.\n// ------------------------------------------------------------------------\n// function burnTokens(uint tokens) public returns(bool success) {\n//     balances[msg.sender] = balances[msg.sender].sub(tokens);\n//     _currentSupply = _currentSupply.sub(tokens);\n//     tokensBurned = tokensBurned.add(tokens);\n//     emit Transfer(msg.sender, address(0), tokens);\n//     return true;\n// }\n\n\n// -------------------------------------------------------------------------\n// This view function shows how many tokens will be obtained for your Wei.\n// - Decimals are included in the result\n// - There is no fee for purchasing tokens\n// -------------------------------------------------------------------------\nfunction weiToTokens(uint weiPurchase) public view returns(uint) {\nif(_currentSupply==0 && weiDeposited==0 ) return weiPurchase; //initial step\nif(weiDeposited==0 || _currentSupply==0 || weiPurchase==0) return 0;\n\nuint ret = (weiPurchase.mul(_currentSupply)).div(weiDeposited);\nreturn ret;\n}\n\n// ----------------------------------------------------------------------------\n// This view function shows how much Wei will be obtained for your tokens.\n// - You must include decimals for an input.\n// - There is 2% fee for converting to Ethereum\n// ----------------------------------------------------------------------------\nfunction tokensToWei(uint tokens) public view returns(uint){\nif(tokens==0 || weiDeposited==0 || _currentSupply==0) return 0;\nuint ret = (weiDeposited.mul(tokens)).div(_currentSupply);\nret = ret.sub(ret.div(50)); //2% fee, it stays to be shared with everyone\nreturn ret;\n}\n\n// ------------------------------------------------------------------------\n// This is the function which allows us to purchase tokens from a contract\n// - Nobody collects Ethereum, it stays in a contract\n// - There is a no fee for purchasing Tokens\n// ------------------------------------------------------------------------\nfunction purchaseTokens() external payable {\nrequire(msg.value>0);\n\nuint tokens = weiToTokens(msg.value);\nrequire(_currentSupply.add(tokens)<=_totalSupply,\"We have reached our contract limit\");\nrequire(tokens>0);\n\n//mint new tokens\nemit Transfer(address(0), msg.sender, tokens);\n\nbalances[msg.sender] = balances[msg.sender].add(tokens);\n_currentSupply = _currentSupply.add(tokens);\n\nweiDeposited = weiDeposited.add(msg.value);\n}\n\n// ------------------------------------------------------------------------\n// This is the function which allows us to exchange tokens back to Ethereum\n// - Burns deposited tokens, returns Ethereum.\n// ------------------------------------------------------------------------\nfunction purchaseEth(uint tokens) public {\nrequire(tokens>0);\nuint getWei = tokensToWei(tokens);\nrequire(getWei>0);\n//burn tokens to get wei\nemit Transfer(msg.sender, address(0), tokens);\nbalances[msg.sender] = balances[msg.sender].sub(tokens);\n_currentSupply = _currentSupply.sub(tokens);\naddress(msg.sender).transfer(getWei);\nweiDeposited = weiDeposited.sub(getWei);\n}\n\n// ------------------------------------------------------------------------\n// This is the function which allows us to exchange all tokens back to Ethereum\n// - Burns deposited tokens, returns Ethereum.\n// ------------------------------------------------------------------------\nfunction sellAllTokens() public {\npurchaseEth(balances[msg.sender]);\n}\n}",
  "sourcePath": "/home/damir/_HERTZ/contracts/_HERTZ.sol",
  "compiler": {
    "name": "solc",
    "version": "0.5.8+commit.23d335f2.Emscripten.clang"
  },
  "schemaVersion": "3.0.17",
  "updatedAt": "2019-11-15T03:36:55.491Z",
  "devdoc": {
    "methods": {}
  },
  "userdoc": {
    "methods": {}
  }
}